{
  "contractName": "EthSwap",
  "abi": [
    {
      "constant": true,
      "inputs": [],
      "name": "name",
      "outputs": [
        {
          "name": "",
          "type": "string"
        }
      ],
      "payable": false,
      "stateMutability": "view",
      "type": "function",
      "signature": "0x06fdde03"
    },
    {
      "constant": true,
      "inputs": [],
      "name": "rate",
      "outputs": [
        {
          "name": "",
          "type": "uint256"
        }
      ],
      "payable": false,
      "stateMutability": "view",
      "type": "function",
      "signature": "0x2c4e722e"
    },
    {
      "constant": true,
      "inputs": [],
      "name": "token",
      "outputs": [
        {
          "name": "",
          "type": "address"
        }
      ],
      "payable": false,
      "stateMutability": "view",
      "type": "function",
      "signature": "0xfc0c546a"
    },
    {
      "inputs": [
        {
          "name": "_token",
          "type": "address"
        }
      ],
      "payable": false,
      "stateMutability": "nonpayable",
      "type": "constructor",
      "signature": "constructor"
    },
    {
      "anonymous": false,
      "inputs": [
        {
          "indexed": false,
          "name": "boughtBy",
          "type": "address"
        },
        {
          "indexed": false,
          "name": "token",
          "type": "address"
        },
        {
          "indexed": false,
          "name": "amount",
          "type": "uint256"
        },
        {
          "indexed": false,
          "name": "rate",
          "type": "uint256"
        }
      ],
      "name": "tokensPurchased",
      "type": "event",
      "signature": "0x05d4ce4d79d5fd631754903dcbe4648470b59f38e9e3d69ca0cb0a672674b97e"
    },
    {
      "anonymous": false,
      "inputs": [
        {
          "indexed": false,
          "name": "boughtBy",
          "type": "address"
        },
        {
          "indexed": false,
          "name": "token",
          "type": "address"
        },
        {
          "indexed": false,
          "name": "amount",
          "type": "uint256"
        },
        {
          "indexed": false,
          "name": "rate",
          "type": "uint256"
        }
      ],
      "name": "tokensSold",
      "type": "event",
      "signature": "0xd563467e19a3a3225220b925c5b1572b54b4810c430051cdda4cd7f0c5c01cfb"
    },
    {
      "constant": false,
      "inputs": [],
      "name": "buyToken",
      "outputs": [],
      "payable": true,
      "stateMutability": "payable",
      "type": "function",
      "signature": "0xa4821719"
    },
    {
      "constant": false,
      "inputs": [
        {
          "name": "_amount",
          "type": "uint256"
        }
      ],
      "name": "sellToken",
      "outputs": [],
      "payable": false,
      "stateMutability": "nonpayable",
      "type": "function",
      "signature": "0x2397e4d7"
    }
  ],
  "bytecode": "0x60806040526040805190810160405280600481526020017f48616861000000000000000000000000000000000000000000000000000000008152506000908051906020019061004f9291906100d9565b50606460025534801561006157600080fd5b50604051602080610c358339810180604052602081101561008157600080fd5b810190808051906020019092919050505080600160006101000a81548173ffffffffffffffffffffffffffffffffffffffff021916908373ffffffffffffffffffffffffffffffffffffffff1602179055505061017e565b828054600181600116156101000203166002900490600052602060002090601f016020900481019282601f1061011a57805160ff1916838001178555610148565b82800160010185558215610148579182015b8281111561014757825182559160200191906001019061012c565b5b5090506101559190610159565b5090565b61017b91905b8082111561017757600081600090555060010161015f565b5090565b90565b610aa88061018d6000396000f3fe60806040526004361061006d576000357c0100000000000000000000000000000000000000000000000000000000900463ffffffff16806306fdde03146100725780632397e4d7146101025780632c4e722e1461013d578063a482171914610168578063fc0c546a14610172575b600080fd5b34801561007e57600080fd5b506100876101c9565b6040518080602001828103825283818151815260200191508051906020019080838360005b838110156100c75780820151818401526020810190506100ac565b50505050905090810190601f1680156100f45780820380516001836020036101000a031916815260200191505b509250505060405180910390f35b34801561010e57600080fd5b5061013b6004803603602081101561012557600080fd5b8101908080359060200190929190505050610267565b005b34801561014957600080fd5b5061015261070c565b6040518082815260200191505060405180910390f35b610170610712565b005b34801561017e57600080fd5b50610187610a56565b604051808273ffffffffffffffffffffffffffffffffffffffff1673ffffffffffffffffffffffffffffffffffffffff16815260200191505060405180910390f35b60008054600181600116156101000203166002900480601f01602080910402602001604051908101604052809291908181526020018280546001816001161561010002031660029004801561025f5780601f106102345761010080835404028352916020019161025f565b820191906000526020600020905b81548152906001019060200180831161024257829003601f168201915b505050505081565b600160009054906101000a900473ffffffffffffffffffffffffffffffffffffffff1673ffffffffffffffffffffffffffffffffffffffff166370a08231336040518263ffffffff167c0100000000000000000000000000000000000000000000000000000000028152600401808273ffffffffffffffffffffffffffffffffffffffff1673ffffffffffffffffffffffffffffffffffffffff16815260200191505060206040518083038186803b15801561032257600080fd5b505afa158015610336573d6000803e3d6000fd5b505050506040513d602081101561034c57600080fd5b810190808051906020019092919050505081111515156103fa576040517f08c379a00000000000000000000000000000000000000000000000000000000081526004018080602001828103825260238152602001807f596f7520646f6e74206861766520656e6f75676820746f6b656e7320746f207381526020017f656c6c000000000000000000000000000000000000000000000000000000000081525060400191505060405180910390fd5b600160009054906101000a900473ffffffffffffffffffffffffffffffffffffffff1673ffffffffffffffffffffffffffffffffffffffff166323b872dd3330846040518463ffffffff167c0100000000000000000000000000000000000000000000000000000000028152600401808473ffffffffffffffffffffffffffffffffffffffff1673ffffffffffffffffffffffffffffffffffffffff1681526020018373ffffffffffffffffffffffffffffffffffffffff1673ffffffffffffffffffffffffffffffffffffffff1681526020018281526020019350505050602060405180830381600087803b1580156104f357600080fd5b505af1158015610507573d6000803e3d6000fd5b505050506040513d602081101561051d57600080fd5b81019080805190602001909291905050505060006002548281151561053e57fe5b049050803073ffffffffffffffffffffffffffffffffffffffff1631101515156105f6576040517f08c379a00000000000000000000000000000000000000000000000000000000081526004018080602001828103825260378152602001807f45786368616e676520646f656e6f74206861766520656e6f756768206574682c81526020017f20506c656173652074727920616761696e206c6174657200000000000000000081525060400191505060405180910390fd5b3373ffffffffffffffffffffffffffffffffffffffff166108fc829081150290604051600060405180830381858888f1935050505015801561063c573d6000803e3d6000fd5b507f05d4ce4d79d5fd631754903dcbe4648470b59f38e9e3d69ca0cb0a672674b97e33600160009054906101000a900473ffffffffffffffffffffffffffffffffffffffff1684600254604051808573ffffffffffffffffffffffffffffffffffffffff1673ffffffffffffffffffffffffffffffffffffffff1681526020018473ffffffffffffffffffffffffffffffffffffffff1673ffffffffffffffffffffffffffffffffffffffff16815260200183815260200182815260200194505050505060405180910390a15050565b60025481565b600034600254029050600160009054906101000a900473ffffffffffffffffffffffffffffffffffffffff1673ffffffffffffffffffffffffffffffffffffffff166370a08231306040518263ffffffff167c0100000000000000000000000000000000000000000000000000000000028152600401808273ffffffffffffffffffffffffffffffffffffffff1673ffffffffffffffffffffffffffffffffffffffff16815260200191505060206040518083038186803b1580156107d657600080fd5b505afa1580156107ea573d6000803e3d6000fd5b505050506040513d602081101561080057600080fd5b810190808051906020019092919050505081101515610887576040517f08c379a000000000000000000000000000000000000000000000000000000000815260040180806020018281038252601a8152602001807f576520646f6e74206861766520656e6f75676820737570706c7900000000000081525060200191505060405180910390fd5b600160009054906101000a900473ffffffffffffffffffffffffffffffffffffffff1673ffffffffffffffffffffffffffffffffffffffff1663a9059cbb33836040518363ffffffff167c0100000000000000000000000000000000000000000000000000000000028152600401808373ffffffffffffffffffffffffffffffffffffffff1673ffffffffffffffffffffffffffffffffffffffff16815260200182815260200192505050602060405180830381600087803b15801561094c57600080fd5b505af1158015610960573d6000803e3d6000fd5b505050506040513d602081101561097657600080fd5b8101908080519060200190929190505050507f05d4ce4d79d5fd631754903dcbe4648470b59f38e9e3d69ca0cb0a672674b97e33600160009054906101000a900473ffffffffffffffffffffffffffffffffffffffff1683600254604051808573ffffffffffffffffffffffffffffffffffffffff1673ffffffffffffffffffffffffffffffffffffffff1681526020018473ffffffffffffffffffffffffffffffffffffffff1673ffffffffffffffffffffffffffffffffffffffff16815260200183815260200182815260200194505050505060405180910390a150565b600160009054906101000a900473ffffffffffffffffffffffffffffffffffffffff168156fea165627a7a72305820b94245f3b35649821e362e24cd3359e1ecf36ff114e46c894dce3968fd3819b20029",
  "source": "pragma solidity ^0.5.0;\n\nimport \"./Token.sol\";\n\ncontract EthSwap {\n    string public name = \"Haha\";\n    Token public token;\n    uint public rate = 100; //for one eth 100 shitty shit token\n    event tokensPurchased(\n        address boughtBy,\n        address token,\n        uint amount,\n        uint rate\n    );\n    event tokensSold(address boughtBy, address token, uint amount, uint rate);\n\n    constructor(Token _token) public {\n        token = _token;\n    }\n\n    function buyToken() public payable {\n        // the ampunt of shish token to be brought has to be calculated\n        // so rate * msg.value\n        uint amount = rate * msg.value;\n\n        //check whethere the exchange that many tokens to sell\n        require(\n            amount < token.balanceOf(address(this)),\n            \"We dont have enough supply\"\n        );\n\n        //after check buy\n        token.transfer(msg.sender, amount);\n\n        // create an event or emit an event\n        emit tokensPurchased(msg.sender, address(token), amount, rate);\n    }\n    function sellToken(uint _amount) public {\n        // investor can sell his token to ethswap exchage\n        // send the token to ethSwap\n        // then send eth to investor then\n        //check whether user has that many tokens\n        require(\n            _amount <= token.balanceOf(msg.sender),\n            \"You dont have enough tokens to sell\"\n        );\n        token.transferFrom(msg.sender, address(this), _amount);\n        uint etherAmount = _amount / rate;\n\n        // check exchange has enough eth to send\n        require(\n            address(this).balance >= etherAmount,\n            \"Exchange doenot have enough eth, Please try again later\"\n        );\n        msg.sender.transfer(etherAmount);\n        // create an event or emit an event\n        emit tokensPurchased(msg.sender, address(token), _amount, rate);\n    }\n}\n",
  "sourcePath": "/Users/muhammadrafi/vscode-all/crypto web3/crypto-exchange/src/contracts/EthSwap.sol",
  "compiler": {
    "name": "solc",
    "version": "0.5.0+commit.1d4f565a.Emscripten.clang"
  },
  "schemaVersion": "3.0.2",
  "updatedAt": "2024-06-18T09:31:24.304Z",
  "devdoc": {
    "methods": {}
  },
  "userdoc": {
    "methods": {}
  }
}